:100000000C942A000C9434000C9434000C943400AA
:100010000C9434000C9434000C9434000C94340090
:100020000C9434000C9434000C9434000C94340080
:100030000C9434000C9434000C9434000C94340070
:100040000C9434000C9434000C9434000C94340060
:100050000C94340011241FBECFE5D8E0DEBFCDBF25
:100060000E94C1010C9460030C94000080E487B9E5
:1000700086E886B9089597B1907F8F70982B97B9CD
:10008000369A3699FECF84B195B1089580E00E94EA
:100090003B00BC0190E080E00E94650220E030E07F
:1000A00040E85AE30E94F30220E030E44CE955E4D2
:1000B0000E94F30220E030E040E251E40E94F301AC
:1000C00008958130910541F08230910539F0892BF6
:1000D00011F480E48BBF089580E8FCCF80E2FACF72
:1000E000823469F018F4813431F00895833459F082
:1000F000843469F008958FEF8ABB8BBB08958FEF2E
:1001000087BB88BB08958FEF84BB85BB08958FEFB5
:1001100081BB82BB08958234C1F018F4813431F080
:100120000895833409F1843471F1089581E090E0F9
:1001300001C0880F6A95EAF79AB3413019F4892B08
:100140008ABB089580958923FBCF81E090E001C0B0
:10015000880F6A95EAF797B3413019F4892B87BB6A
:10016000089580958923FBCF81E090E001C0880F3E
:100170006A95EAF794B3413019F4892B84BB08954A
:1001800080958923FBCF81E090E001C0880F6A95BC
:10019000EAF791B3413019F4892B81BB089580951A
:1001A0008923FBCF8234C1F018F4813431F00895F3
:1001B000833409F1843471F1089581E090E001C045
:1001C000880F6A95EAF79BB3413019F4892B8BBBF2
:1001D000089580958923FBCF81E090E001C0880FCE
:1001E0006A95EAF798B3413019F4892B88BB0895D2
:1001F00080958923FBCF81E090E001C0880F6A954C
:10020000EAF795B3413019F4892B85BB08958095A1
:100210008923FBCF81E090E001C0880F6A95EAF75F
:1002200092B3413019F4892B82BB089580958923BC
:10023000FBCF8234A1F020F4813441F080E00895B6
:10024000833479F08434D1F780B301C089B390E06E
:1002500002C0959587956A95E2F78170089586B3F7
:10026000F6CF83B3F4CF40E150E090E080E09A0114
:10027000082E01C0220F0A94EAF72ABB20952BBB57
:1002800029B329B329B329B301968330910579F7AE
:10029000ECCFC39A0000C39881E28A95F1F7000081
:1002A0000895CF93DF93C82F9BB39F70807F982BC7
:1002B0009BBBC1980E9449018BB38F7090E1C99F8D
:1002C000E00111248C2B8BBBDF91CF910C94490161
:1002D000CF93DF93C82F9BB39F70807F982B9BBBDE
:1002E000C19A0E9449018BB38F7090E1C99FE001D0
:1002F00011248C2B8BBBDF91CF910C94490181E0B1
:100300000E94510183EF91E00197F1F700C00000D6
:1003100008958AB3806F8ABB87B38E6087BB87E8F6
:1003200093E10197F1F700C0000082E00E945101C3
:1003300088E20E94510181EE94E00197F1F700C03C
:1003400000008CE00E94510181EE94E00197F1F7EA
:1003500000C000000C947F01CF93DF93EC018991E2
:10036000811103C0DF91CF9108950E946801F7CFFA
:10037000813029F480E4860F80680C94510180E07C
:10038000FACF0E94360041E062E083E40E948B00D5
:1003900041E067E083E40E948B0040E061E081E49B
:1003A0000E948B0081E00E943B0041E062E08130CE
:1003B00022E0920758F441E08115924031F440E088
:1003C00062E083E40E94D20040E067E083E40E94A0
:1003D000D2008FE996E821E0815090402040E1F77B
:1003E00000C00000DFCF0E9407020C94B9020E94F7
:1003F000B20258F00E94AB0240F029F45F3F29F0AE
:100400000C94A20251110C94ED020C94A8020E94CB
:10041000CA0268F39923B1F3552391F3951B550B49
:10042000BB27AA2762177307840738F09F5F5F4FC7
:10043000220F331F441FAA1FA9F335D00E2E3AF006
:10044000E0E832D091505040E695001CCAF72BD01E
:10045000FE2F29D0660F771F881FBB1F261737076F
:100460004807AB07B0E809F0BB0B802DBF01FF27A1
:1004700093585F4F3AF09E3F510578F00C94A202DA
:100480000C94ED025F3FE4F3983ED4F386957795A4
:100490006795B795F7959F5FC9F7880F911D96955A
:1004A000879597F90895E1E0660F771F881FBB1FB6
:1004B000621773078407BA0720F0621B730B840B63
:1004C000BA0BEE1F88F7E0950895E89409C097FBF2
:1004D0003EF490958095709561957F4F8F4F9F4F1B
:1004E0009923A9F0F92F96E9BB279395F69587955F
:1004F00077956795B795F111F8CFFAF4BB0F11F422
:1005000060FF1BC06F5F7F4F8F4F9F4F16C08823C8
:1005100011F096E911C0772321F09EE8872F762FFE
:1005200005C0662371F096E8862F70E060E02AF03F
:100530009A95660F771F881FDAF7880F969587952B
:1005400097F9089597F99F6780E870E060E0089553
:100550009FEF80EC089500240A94161617061806DB
:100560000906089500240A941216130614060506B7
:100570000895092E0394000C11F4882352F0BB0F48
:1005800040F4BF2B11F460FF04C06F5F7F4F8F4FAB
:100590009F4F089557FD9058440F551F59F05F3FE6
:1005A00071F04795880F97FB991F61F09F3F79F095
:1005B00087950895121613061406551FF2CF469517
:1005C000F1DF08C0161617061806991FF1CF869599
:1005D0007105610508940895E894BB27662777277D
:1005E000CB0197F908950E9406030C94B9020E946A
:1005F000AB0238F00E94B20220F0952311F00C9467
:10060000A2020C94A80211240C94ED020E94CA02CA
:1006100070F3959FC1F3950F50E0551F629FF00155
:10062000729FBB27F00DB11D639FAA27F00DB11D6E
:10063000AA1F649F6627B00DA11D661F829F2227F7
:10064000B00DA11D621F739FB00DA11D621F839F7E
:10065000A00D611D221F749F3327A00D611D231F54
:10066000849F600D211D822F762F6A2F11249F57A2
:1006700050409AF0F1F088234AF0EE0FFF1FBB1FA5
:10068000661F771F881F91505040A9F79E3F510564
:1006900080F00C94A2020C94ED025F3FE4F3983ECC
:1006A000D4F3869577956795B795F795E7959F5F0E
:1006B000C1F7FE2B880F911D9695879597F90895A0
:0406C000F894FFCFDC
:00000001FF
